:020000040800F2
:10000000C0040020E10800089101000893010008E5
:10001000B9010008BD010008C1010008000000008E
:10002000000000000000000000000000C501000802
:10003000C701000800000000C9010008CB0100084A
:10004000FB080008FB080008FB080008FB08000884
:10005000FB080008FB080008FB080008FB08000874
:1000600097010008FB080008FB080008FB080008CF
:10007000FB080008FB080008FB080008FB08000854
:10008000FB080008FB080008FB080008FB08000844
:10009000FB080008FB080008FB080008FB08000834
:1000A000FB080008FB080008FB080008FB08000824
:1000B000FB08000899010008FB080008FB0800087D
:1000C000FB080008FB080008FB080008FB08000804
:1000D000FB080008A9010008B1010008FB0800089E
:1000E000FB080008FB080008FB080008FB080008E4
:1000F000FB080008FB080008FB080008FB080008D4
:10010000FB080008FB080008FB080008FB080008C3
:10011000FB080008FB080008FB080008FB080008B3
:10012000FB080008FB080008FB080008FB080008A3
:10013000DFF80CD003F082F90048004745010008C1
:10014000C004002000F044F800F05AF8012002F04A
:1001500096FA00F026FA012002F075FA00F021FA72
:1001600001221146054801F00AFE06E04FF47A70BC
:1001700002F069FA02A003F073F9F7E70004004007
:1001800048656C6C6F20776F726C640A0000000029
:10019000704700BFFEE7704710B501210B4802F021
:1001A000ADF800F00AFA10BD10B502F020FC10BD49
:1001B00010B502F03AFC10BD00BFFEE700BFFEE73D
:1001C00000BFFEE77047704770477047000400406B
:1001D00010B500F004FB4FF4E13002F06DFA4FF47B
:1001E000E13002F0BDFA4FF4165002F007FB02F0C6
:1001F0009EFD02F0A1FC02F037FE02F06DFE10BD84
:1002000010B5032002F03BFA00F002F810BD000028
:10021000F8B50024002500BF0AE04FF48061A94032
:1002200088B202F0A9FC322002F00DFA681CC5B2B7
:10023000062DF2DB002415E00121A14088B241F631
:10024000030102F0E8FD06460121A14088B24FF407
:10025000A06102F0E0FD06464FF6FF7000EA460698
:10026000601CC4B2062CE7DBD74800F00AFA002075
:1002700001230622D5490090D54800F0E6F9D5487B
:10028000007802F0F6FAF8BD38B5CF4800F0F9F979
:10029000002003460822CD490090CF4800F0D5F950
:1002A00000250BE04FF48061A94088B202F05CFCAD
:1002B0004FF4FA7002F0C7F9681CC5B2062DF1DBE5
:1002C0004FF47A7002F0BFF900240BE04FF4806124
:1002D000A14088B202F050FC4FF4FA7002F0B3F97A
:1002E000601CC4B2062CF1DBBC48007802F0C1FAF5
:1002F000B54800F0C6F9002001230622B34900905A
:10030000B34800F0A2F9002003460F22AF49009045
:10031000B34800F09AF938BD70472DE9F04F8BB023
:10032000B04840783C2807D0AE48C07B302803D086
:10033000AC4840783A2824D1AA488078AA49087065
:10034000A84840783C280AD1FFF762FF0020034606
:100350000F229E490090A24800F077F9FCE0A148E6
:10036000C07B30280AD1FFF78FFF002003460F2201
:10037000964900909A4800F068F9EDE0FFF7CCFF4D
:10038000EAE0002400200A9009908F4800F079F9F3
:100390000020034610228D490090944800F055F942
:1003A0009048807890490978484009908D48807835
:1003B0008D49087000BFC8E04020204109990840DD
:1003C00000287DD0874880784021214108400028BE
:1003D00077D04FF48061A14088B202F0C5FB0120C4
:1003E00002F031F90121A14088B241F6030102F087
:1003F00012FDC0B20A900A98401CC0B20A90600078
:10040000C01C7849085C4FEAA01BBBF1000F06D066
:100410004FF48061A14088B202F0B6FB08E0BBF166
:10042000000F05D14FF48061A14088B202F0AFFB0C
:10043000102000EB44006B49085C0790079800EB24
:10044000C00101EB00104FF6FF7101EA8000079038
:10045000112000EB44006349085C0690DDE90601C9
:100460000F18032000EB44005E49085C00F03F08D1
:10047000642008FB00F9042000EB440011F800A000
:1004800009EB0A05384602F0C7FE0490284602F040
:10049000C3FE0390049902F06BFD5549059002F0EC
:1004A00035FD0890089802F0D5FE0022514BCDE9A9
:1004B000000102F042FE00224F4BCDE9020101E0B3
:1004C00030E029E002F036FECDE9040102F0D5FE6D
:1004D00008904FF08941089802F018FD089008989C
:1004E00002F0B8FE0022454BCDE9020102F07EFD8C
:1004F000CDE9040102F095FE86B2B6F5806F01DB0E
:1005000040F2FF3646F480610122A24090B202F030
:1005100082FCC0B20A9005E04FF48061A14088B22D
:1005200002F02AFB2F48807840212141084050B139
:10053000052000EB4400C0B201231A462349009075
:100540002F4800F082F8601CC4B2062CFFF634AFCE
:10055000552002F08EF900BF00202A4908702A4970
:1005600008700BB0BDE8F08F10B52848007801285E
:1005700016D127488179407901EB002041F27C5166
:10058000884204DD0221234800F0C9FA03E0022179
:10059000204800F0C6FA00201F4908701B49087067
:1005A00010BD10B503211D4802F071F910BD10B542
:1005B00006211B4802F06BF910BD10B50521194842
:1005C00002F065F910BD00001500002019000020A0
:1005D0001B00002011000020480000201200002015
:1005E000840000209300002000000020380000203C
:1005F00000006041000034400000F03F0000E03F98
:1006000001000020790000207B0000207C000020F9
:10061000B0000020000801407A0000200300002004
:10062000060000200C00002070B505460C46022193
:100630002D4802F060F9284602F04FF9204602F0FA
:100640004CF9012001F0FFFF70BD2DE9F041074694
:100650000C4615461E46DDF8188041463046FFF729
:10066000E3FF0221204602F046F92946384602F00F
:1006700042F90D2002F031F90A2001F0C9FFBDE86E
:10068000F08110B504460221204602F034F9012021
:1006900001F0D9FF10BD38B500240EE01348005D0D
:1006A0000D2805D01249E01C085C1049085502E0ED
:1006B0000D200E490855601CC4B20F2CEEDB0D480E
:1006C000FFF7DFFF002003460F220B490090074889
:1006D000FFF7BBFF002001230622074900900748CF
:1006E000FFF7B3FF38BD0000170000208400002092
:1006F0009300002015000020190000201B0000209E
:100700000CB50020019000906C48006840F48030E7
:100710006A49086000BF6948006800F40030009032
:100720000198401C0190009818B90198B0F5A06F8D
:10073000F1D16248006800F4003010B1012000904F
:1007400001E0002000900098012843D15C48006837
:1007500040F010005A4908600846006820F0030085
:1007600008600846006840F002000860534840688E
:10077000524948600846406848600846406840F46E
:10078000806048600846406820F47C104860084655
:10079000406840F4E81048600846006840F0807007
:1007A000086000BF4548006800F000700028F9D0DC
:1007B0004248406820F003004049486008464068CD
:1007C00040F00200486000BF3C48406800F00C0068
:1007D0000828F9D10CBD10B5FFF792FF10BD10B578
:1007E0003648006840F00100344908600846406817
:1007F0003449084031494860084600683249084099
:100800002E4908600846006820F4802008600846E9
:10081000406820F4FE0048604FF41F008860FFF736
:10082000DAFF4FF000602949086010BD10B50021C3
:1008300000200022214B5B6803F00C0121B1042948
:1008400006D0082928D107E0214B224C236027E05D
:100850001F4B204C236023E0184B5B6803F470109F
:10086000164B5B6803F48032022303EB904022B9FD
:10087000194B4343174C23600DE0104B5B6803F4A6
:10088000003323B1144B4343124C236003E0104B5D
:100890004343104C236003E00D4B0E4C236000BF1C
:1008A00000BF064B5B68C3F303130C4CE15C094BC0
:1008B0001B68CB40074C236010BD000000100240B5
:1008C000002002400000FFF8FFFFF6FE08ED00E008
:1008D00000127A005000002000093D005400002062
:1008E0000648804706480047FEE7FEE7FEE7FEE7CA
:1008F000FEE7FEE7FEE7FEE7FEE7FEE7DF070008AC
:100900003101000810B50446CC48844208D10121C9
:10091000042000F02DFB0021042000F029FB46E01C
:10092000C748844208D10121082000F021FB0021A2
:10093000082000F01DFB3AE0C248844208D10121A2
:10094000102000F015FB0021102000F011FB2EE01C
:10095000BD48844208D10121202000F009FB00217C
:10096000202000F005FB22E0B848844208D1012194
:10097000402000F0FDFA0021402000F0F9FA16E0D6
:10098000B348844208D10121802000F0F1FA00210F
:10099000802000F0EDFA0AE0AE48844207D1012140
:1009A000801500F0E5FA0021A01500F0E1FA10BD75
:1009B00010B50121084600F0DBFA0021012000F00B
:1009C000D7FA10BD2DE9F04102460025002600208F
:1009D00000230024002791F803C00CF00F0591F8C4
:1009E00003C00CF0100CBCF1000F03D091F802C052
:1009F0004CEA050591F800C0BCF1000F31D0146835
:100A000000202BE04FF0010C0CFA00F3B1F800C00D
:100A10000CEA03069E4220D183004FF00F0C0CFA23
:100A200003F7BC4305FA03FC4CEA040491F803C045
:100A3000BCF1280F06D14FF0010C0CFA00FCC2F8F3
:100A400014C00AE091F803C0BCF1480F05D14FF083
:100A5000010C0CFA00FCC2F810C0401C0828D1D3CD
:100A60001460B1F800C0BCF1FF0F34DD5468002001
:100A70002EE000F1080C4FF0010808FA0CF3B1F871
:100A800000C00CEA03069E4221D183004FF00F0CF8
:100A90000CFA03F7BC4305FA03FC4CEA040491F892
:100AA00003C0BCF1280F05D100F1080C08FA0CF8BE
:100AB000C2F8148091F803C0BCF1480F07D100F1CF
:100AC000080C4FF0010808FA0CF8C2F81080401C1E
:100AD0000828CED35460BDE8F0814FF6FF71018045
:100AE000022181700421C170704702460020936882
:100AF0000B400BB1012000E00020704701468868E0
:100B000080B2704702460020D3680B400BB1012031
:100B100000E0002070470146C86880B2704701615C
:100B20007047416170470AB1016100E0416170475F
:100B3000C16070474FF480320A43826181618261F3
:100B400082698269704702460020434B18684FF65D
:100B50008073184040EA021008433F4B186070470A
:100B60003E49C8617047F0B50A46002300240021C1
:100B7000002500F00046B6F1004F02D1364EF16973
:100B800001E0354E7168C0F3034583B200F44016AE
:100B9000B6F5401F08D121F070612F4E766826F01F
:100BA00070662D4F7E6012E000F48016B6F5801F4F
:100BB00006D1032606FA05F4A14341F0706106E070
:100BC000460D360103FA06F6B14341F0706122B1D9
:100BD000460D360103FA06F6314300F00046B6F141
:100BE000004F02D11C4EF16101E01B4E7160F0BD5F
:100BF00030B500228B071C0F0F2303FA04F2164BAB
:100C000008338C1053F824309343134C08348D1060
:100C100044F8253023468C1053F824308C07240FD9
:100C200000FA04F423430C4C08348D1044F82530AA
:100C300030BD0A49DC3108607047000000080140FF
:100C4000000C014000100140001401400018014058
:100C5000001C014000200140000001400000204233
:100C6000DF48006840F00100DD4908600846406840
:100C7000DC490840DA49486008460068DA4908401B
:100C8000D74908600846006820F4802008600846BC
:100C9000406820F4FE0048604FF41F0088607047F1
:100CA000CF49096821F48031CD4A116011460968A5
:100CB00021F480211160B0F5803F03D0B0F5802F82
:100CC0000ED106E0C649096841F48031C44A11607A
:100CD00007E0C349096841F4A021C14A116000E05E
:100CE00000BF00BF704710B501460022002300205E
:100CF0004A11012A02D1BA4C236806E0022A02D125
:100D0000B74C236A01E0B64C636A01F01F0201246C
:100D100094401C400CB1012000E0002010BD38B50B
:100D2000002000900024002500BF3120FFF7DBFFEA
:100D300005460098401C00900098B0F5A06F01D0C7
:100D4000002DF2D03120FFF7CEFF08B1012400E0E2
:100D50000024204638BD01460020A14A106820F03A
:100D6000F80040EAC10010607047A0490860704771
:100D7000024600209A4B586820F47C1042EA010396
:100D80001843974B5860704798490866704701466A
:100D90000020934A506820F00300084350607047D9
:100DA0008F48406800F00C007047014600208C4AD4
:100DB000506820F0F0000843506070470146002062
:100DC000874A506820F4E06008435060704701464D
:100DD0000020834A506820F4605040EAC10050600F
:100DE000704729B17E4A527A02437D4B5A7204E021
:100DF0007B4A527A82437A4B5A7270477B49D83188
:100E00000860704701460020754A506820F4404051
:100E10000843506070470021714A20321170704AB7
:100E200082F82010012802D004280AD104E0012110
:100E30006B4A2032117005E00521694A2032117099
:100E400000E000BF00BF704769490860704764490F
:100E5000096A0143624A1162704765494439086072
:100E6000704730B500210022002400235C4D6D68DE
:100E700005F00C0121B1042905D0082923D105E092
:100E80005C4D056022E05B4D05601FE0544D6D68D0
:100E900005F47012524D6D6805F48034022505EB9F
:100EA00092421CB9544D554305600BE04C4D6D68A2
:100EB00005F400351DB1504D5543056002E04D4D20
:100EC0005543056002E04B4D056000BF00BF444D37
:100ED0006D6805F0F0010909484D6B5C0568DD405F
:100EE00045603F4D6D6805F4E061090A434D6B5C58
:100EF0004568DD4085603A4D6D6805F46051C90A6A
:100F00003E4D6B5C4568DD40C560354D6D6805F450
:100F10004041890B3A4D6B5CC568B5FBF3F5056143
:100F200030BD29B12E4A526902432D4B5A6104E06B
:100F30002B4A526982432A4B5A61704729B1284A89
:100F400092690243264B9A6104E0254A92698243E2
:100F5000234B9A61704729B1214AD2690243204B41
:100F6000DA6104E01E4AD26982431D4BDA617047A0
:100F700029B11B4AD2680243194BDA6004E0184ACF
:100F8000D2688243164BDA60704729B1144A12695D
:100F90000243134B1A6104E0114A12698243104B59
:100FA0001A61704712494039086070470F49C86498
:100FB00070470B49C87170470948406A40F080701B
:100FC00007494862704701460020054A92680A4076
:100FD0000AB1012000E00020704701498872704783
:100FE000001002400000FFF8FFFFF6FE0000424242
:100FF0008004424200127A0000093D006400002093
:101000007400002010B50446FB48844209D1012138
:101010008803FFF7ADFF00214FF48040FFF7A8FFE2
:1010200032E0F648844209D101214804FFF7ADFFC0
:1010300000214FF40030FFF7A8FF25E0F04884427C
:1010400009D101218804FFF7A0FF00214FF480207F
:10105000FFF79BFF18E0EB48844209D10121C80447
:10106000FFF793FF00214FF40020FFF78EFF0BE006
:10107000E548844208D101210805FFF786FF0021D9
:101080004FF48010FFF781FF10BD2DE9F04786B0C7
:1010900005460E460024A24600BFA1460027B0899F
:1010A00000B100BF2F462C8A4CF6FF700440F08838
:1010B00004432C82AC894EF6F3100440B088318989
:1010C0000843718908430443AC81AC8A4FF6FF4062
:1010D0000440B0890443AC8201A8FFF7C2FEC648B1
:1010E000874202D1DDF810A001E0DDF80CA0A8894C
:1010F00000F4004040B10AEBCA0000EB0A1031686E
:101100004900B0FBF1F807E00AEBCA0000EB0A1057
:1011100031688900B0FBF1F86420B8FBF0F00401FD
:101120002009642101FB1089A88900F4004040B126
:10113000322000EBC900B0FBF1F000F007000443DF
:1011400008E0322000EB09106421B0FBF1F000F060
:101150000F0004432C8106B0BDE8F0874FF4165110
:10116000016000218180C18001810C214181002129
:101170008181704710B502460020108A4FF2FF03AC
:1011800018400B884C8823438C882343CC88234306
:101190001843108210BD0021018041808180C180F0
:1011A000704721B1828942F40052828104E0828931
:1011B0004DF6FF731A4082817047F0B50346002454
:1011C00000260025002040F66A17B94200D100BF72
:1011D0001846C1F3421401F01F06012707FA06F56D
:1011E000012C01D10C3004E0022C01D1103000E0C0
:1011F00014301AB107682F43076002E00768AF4355
:101200000760F0BD1AB1838A0B43838202E0838AB0
:101210008B4383827047028A4FF6F0731A40028232
:10122000028A0A430282704782894FF2FF731A4092
:10123000828182890A438281704721B1828942F08A
:101240000202828104E082894FF6FD731A40828196
:101250007047028A4FF6DF731A400282028A0A43FD
:101260000282704721B1028A42F48042028204E085
:10127000028A4BF6FF731A4002827047C1F30802DC
:101280008280704701468888C0F3080070478189D2
:1012900041F0010181817047028BD2B20283028B3F
:1012A00042EA012202837047028B02F47F420283EA
:1012B000028B0A430283704721B1828A42F02002E6
:1012C000828204E0828A4FF6DF731A40828270477E
:1012D00021B1828A42F01002828204E0828A4FF6B3
:1012E000EF731A408282704721B1828A42F008026D
:1012F000828204E0828A4FF6F7731A408282704736
:1013000021B1828942F40042828103E08289C2F3E2
:101310000E028281704721B1828A42F40062828289
:1013200004E0828A4FF2FF731A4082827047828AF9
:101330004FF6FB731A408282828A0A438282704788
:1013400021B1828A42F00202828204E0828A4FF650
:10135000FD731A408282704702460020B1F5007F7B
:1013600000D100BF13880B400BB1012000E000202A
:10137000704701F40072B2F5007F00D100BFCA438C
:101380000280704770B5024600240023002500202B
:1013900040F66A16B14200D100BFC1F3421501F018
:1013A0001F03012606FA03F3012D02D1968933406B
:1013B00006E0022D02D1168A334001E0968A3340BE
:1013C0000C12012606FA04F41688344013B10CB14D
:1013D000012000E0002070BD10B50022002340F67F
:1013E0006A14A14200D100BF0A1201249440A3B2A2
:1013F000DC43048010BD0000003801400044004080
:1014000000480040004C004000500040314901437A
:10141000314A1160704770B5002100230F22C47853
:1014200004B32D4C246804F4E064C4F5E064210A9C
:10143000C1F10403CA40447804FA03F184781440EB
:1014400021430901254C0678A155047804F01F05B5
:101450000124AC4005786D11AD0005F1E025C5F81B
:10146000004109E0047804F01F050124AC401C4D44
:101470000678761145F8264070BD1A4A0A400243A4
:10148000154B1B1F1A60704739B1134A121D1268A1
:101490000243114B1B1D1A6006E00F4A121D126811
:1014A00082430D4B1B1D1A607047042808D14FF072
:1014B000E021096941F004014FF0E022116107E0E9
:1014C0004FF0E021096921F004014FF0E0221161A1
:1014D000704700000000FA050CED00E000E400E0B9
:1014E00080E100E080FFFF1F10B50446FE48844203
:1014F00008D10121C014FFF73BFD0021E014FFF7E4
:1015000037FDC4E0B4F1804F08D101210846FFF750
:101510003CFD00210120FFF738FDB8E0F34884428C
:1015200008D101210220FFF730FD00210220FFF742
:101530002CFDACE0EE48844208D101210420FFF7E5
:1015400024FD00210420FFF720FDA0E0E9488442AB
:1015500008D101210820FFF718FD00210820FFF71E
:1015600014FD94E0E448844208D101211020FFF7E3
:101570000CFD00211020FFF708FD88E0DF488442C1
:1015800008D101212020FFF700FD00212020FFF7D6
:10159000FCFC7CE0DA48844208D101214014FFF7CA
:1015A000E7FC00216014FFF7E3FC70E0D5488442BB
:1015B00009D10121C804FFF7DBFC00214FF4002012
:1015C000FFF7D6FC63E0D048844209D10121080529
:1015D000FFF7CEFC00214FF48010FFF7C9FC56E066
:1015E000CA48844209D101214805FFF7C1FC002106
:1015F0004FF40010FFF7BCFC49E0C548844208D115
:1016000001214020FFF7C1FC00214020FFF7BDFC75
:101610003DE0C048844208D101218020FFF7B5FC9D
:1016200000218020FFF7B1FC31E0BB48844208D1A3
:1016300001218015FFF7A9FC0021A015FFF7A5FCEB
:1016400025E0B648844209D101210804FFF790FC47
:1016500000214FF48030FFF78BFC18E0B048844243
:1016600009D101214804FFF783FC00214FF4003029
:10167000FFF77EFC0BE0AB48844208D101218804CF
:10168000FFF776FC00214FF48020FFF771FC10BDBE
:1016900000220288944B98420ED0994B98420BD06E
:1016A000B0F1804F08D0914B984205D0904B9842B2
:1016B00002D0904B984204D14FF68F731A404B885A
:1016C0001A438D4B984207D08C4B984204D04FF66A
:1016D000FF431A40CB881A4302808B8883850B888E
:1016E0000385814B98420BD0854B984208D08B4B99
:1016F000984205D08A4B984202D08A4B984201D139
:101700000B7A038601238382704770B50024002280
:101710000023058C4FF6FE7635400584028C8388C5
:10172000048B4FF68F752C40B51E2C400D882C4332
:10173000751E2A400D892A434D882A436A4DA842C6
:101740000BD06F4DA84208D0744DA84205D0744DFF
:10175000A84202D0734DA84213D14FF6F7752A4024
:101760004D892A434FF6FB752A408D882A434FF650
:10177000FF652B404FF6FF552B408D892B43CD89BC
:101780002B4383800483CD888586028470BD70B529
:10179000002400220023058C4FF6EF7635400584A7
:1017A000028C8388048B48F6FF752C404FF6FF456A
:1017B0002C400D884FF6FF7606EA05252C434FF6A0
:1017C000DF752A400D8906EA05152A434D8806EA89
:1017D00005152A43444DA84202D0494DA8421DD1C7
:1017E0004FF67F752A404D894FF6FF7606EA0515BC
:1017F0002A434FF6BF752A408D8806EA05152A430D
:101800004FF6FF352B404FF2FF752B408D8906EACE
:1018100085052B43CD8906EA85052B438380048308
:10182000CD880587028470BD70B500240022002396
:10183000058C4FF6FF6635400584028C8388848BC7
:101840004FF68F752C404FF6FC752C400D882C43BD
:101850004FF6FF552A400D894FF6FF7606EA05251B
:101860002A434D8806EA05252A431F4DA84202D087
:10187000234DA8421DD14FF2FF752A404D894FF6E6
:10188000FF7606EA05252A434FF6FF352A408D8864
:1018900006EA05252A434EF6FF752B404DF6FF75E7
:1018A0002B408D8906EA05152B43CD8906EA0515DF
:1018B0002B4383808483CD888587028470BD70B577
:1018C000002200230024058C4EF6FF763540058467
:1018D000038C8488828B48F6FF752A404FF6FF45BB
:1018E0002A400D8820E00000002C01400004004048
:1018F00000080040000C00400010004000140040B0
:1019000000340140004C01400050014000540140AF
:1019100000180040001C0040002000400040014032
:1019200000440140004801404FF6FF7606EA0525D5
:101930002A434DF6FF752B400D8906EA05352B43EA
:101940004D8806EA05352B43FA4DA84202D0FA4DE0
:10195000A84208D14BF6FF752C408D894FF6FF76D3
:1019600006EA85152C4384808283CD88A0F84050F8
:10197000038470BD828B4FF2FF331A408283828BC7
:101980004FF6FF7303EA01231A4382837047F0B5D1
:101990000C461546002200210026078C4EF6FF7CDF
:1019A00007EA0C070784828B018C4FF6FF7707EA62
:1019B000043640F6FF473A404FF6FF7707EA05271F
:1019C0003A434FF6FF7707EA03373A43D94FB84215
:1019D0000ED0D94FB8420BD0B0F1804F08D0D74FBE
:1019E000B84205D0D64FB84202D0D64FB84206D141
:1019F0004DF6FF77394046F48057394305E047F606
:101A0000FF57394044F48057394382830184F0BD45
:101A1000828B4FF6F3731A408283828B0A43828350
:101A20007047F0B50C461546002200210026078CB1
:101A30004FF6FF6C07EA0C070784828B018C4FF688
:101A4000FF7707EA04264FF60C773A404FF6FF7708
:101A500007EA03172F433A43B64FB8420ED0B64FAA
:101A6000B8420BD0B0F1804F08D0B44FB84205D087
:101A7000B34FB84202D0B34FB84206D14FF6FF572A
:101A8000394046F48077394305E04FF2FF5739403B
:101A900044F48077394382830184F0BD028B4FF296
:101AA000FF331A400283028B4FF6FF7303EA0123D0
:101AB0001A4302837047F0B50C46154600220021F8
:101AC0000026078C4FF6EF7C07EA0C070784028B91
:101AD000018C4FF6FF7707EA041640F6FF473A40BD
:101AE0004FF6FF7707EA03373A434FF6FF7707EAE7
:101AF00005273A438F4FB8420ED08F4FB8420BD0D4
:101B0000B0F1804F08D08D4FB84205D08C4FB8420D
:101B100002D08C4FB84206D14FF6DF77394046F0FD
:101B20001007394305E04FF65F77394044F010075E
:101B3000394302830184F0BD028B4FF6F3731A40E0
:101B40000283028B0A4302837047F0B50C461546A8
:101B500000220021068C4FF6FE773E400684028B61
:101B6000018C4FF60C7632407E1C06EA03162E439B
:101B70003243704EB0420ED06F4EB0420BD0B0F137
:101B8000804F08D06D4EB04205D06D4EB04202D0AD
:101B90006C4EB04206D14FF6FD76314044F001065E
:101BA000314305E04FF6F576314044F0010631430C
:101BB00002830184F0BD70B505460C465D48854240
:101BC0000ED05D4885420BD0B5F1804F08D05B4800
:101BD000854205D05A48854202D05A48854200D1F4
:101BE00000E000BF208850B92389A2886188284678
:101BF000FFF7ABFFE1882846FFF79EFF25E020882E
:101C000004280AD12389A28861882846FFF753FF58
:101C1000E1882846FFF742FF17E0208808280AD10C
:101C20002389A28861882846FFF7FBFEE1882846C1
:101C3000FFF7EEFE09E02389A28861882846FFF7B6
:101C4000A6FEE1882846FFF795FE70BD2DE9F0411C
:101C500005460C4600260127608808B9022600E0E8
:101C60000026A088012801D1022700E00127208852
:101C7000A0B92389A28861882846FFF766FFE1881A
:101C80002846FFF759FF23893A4631462846FFF791
:101C900012FFE1882846FFF701FF13E02389A2889D
:101CA00061882846FFF707FFE1882846FFF7F6FE20
:101CB00023893A4631462846FFF747FFE188284600
:101CC000FFF73AFFBDE8F0810A884B881A438B88FA
:101CD0001A43CB881A430B891A434B891A438B89C1
:101CE0001A43A0F8442070474FF6FF71818000210D
:101CF0000180C180418001727047002101804180D4
:101D00008180C180018141818181C1817047002131
:101D100001804180012181800021C18001817047C3
:101D20000021018041808180C180018141818181C8
:101D300070470000002C01400034014000040040C6
:101D400000080040000C004021B1028842F001026E
:101D5000028004E002884FF6FE731A40028070474A
:101D600031B1B0F8442042F40042A0F8442005E02C
:101D7000B0F84420C2F30E02A0F8442070471AB114
:101D800083890B43838102E083898B43838170477E
:101D90008182704741EA0203A0F8483070471AB1C7
:101DA00083890B43838102E083898B43838170475E
:101DB00001894FF6F8721140018170470A460021EF
:101DC00001894FF68F73194011430181704730B577
:101DD00004460D4629462046FFF7F0FF208940F0D3
:101DE0000700208130BD2DE9F04104460D4616461E
:101DF0001F46602D06D13B46012231462046FFF7A3
:101E00005AFE05E03B46012231462046FFF79DFE83
:101E100029462046FFF7D2FF208940F007002081A5
:101E2000BDE8F08130B50C4600210189C9B24FF6FA
:101E3000FF7505EA0325154325432943018130BD7C
:101E40002DE9F04105460E461746984600244346C4
:101E50003A4631462846FFF7E5FF2C894FF6F870E1
:101E6000044044F007044FF68F70044044F07004BF
:101E70002C81BDE8F081F0B504460D4616461F469C
:101E80003B46324629462046FFF7CCFF208940F4E6
:101E900080402081F0BD0185828270470A46002182
:101EA00001884FF68F731940114301807047F0B5D8
:101EB0000C4615461E460021002200230189028B94
:101EC000038C4FF6F877394021434FF6FC473A40F0
:101ED00040F201173A434FF6DD773B404FF6FF776C
:101EE00007EA06172F433B43018102830384F0BDB9
:101EF0000A460021018B4FF68F731940114301836D
:101F000070470A460021018B48F6FF7319404FF6CF
:101F1000FF7303EA02231943018370470A46002135
:101F2000818B4FF68F7319401143818370470A46A6
:101F30000021818B48F6FF7319404FF6FF7303EAC7
:101F4000022319438183704721B1028842F0800245
:101F5000028004E002884FF67F731A4002807047C7
:101F600021B1828842F00402828004E082884FF628
:101F7000FB731A408280704721B1828842F00802C8
:101F8000828004E082884FF6F7731A40828070479F
:101F900021B1828842F00102828004E082884FF6FB
:101FA000FE731A40828070470A460021018B4FF66B
:101FB000F77319401143018370470A460021018BD2
:101FC0004FF2FF7319404FF6FF7303EA02231943E0
:101FD000018370470A460021818B4FF6F773194041
:101FE0001143818370470A460021818B4FF2FF73B2
:101FF00019404FF6FF7303EA0223194381837047A8
:102000000A460021018B4FF6FB73194011430183EF
:1020100070470A460021018B4FF6FF3319404FF6F7
:10202000FF7303EA02231943018370470A46002124
:10203000818B4FF6FB7319401143818370470A4629
:102040000021818B4FF6FF3319404FF6FF7303EAEF
:1020500002231943818370470A460021018B4FF602
:102060007F7319401143018370470A460021018B99
:10207000C1F30E014FF6FF7303EA022319430183F4
:1020800070470A460021818B4FF67F731940114338
:10209000818370470A460021818BC1F30E014FF600
:1020A000FF7303EA02231943818370470A46002124
:1020B000018C4FF6FD7319401143018470470A46A5
:1020C0000021018C4FF6F7731940114301847047CA
:1020D0000A460021018C4FF6DF7319404FF6FF735B
:1020E00003EA02131943018470470A460021018C58
:1020F0004FF67F7319404FF6FF7303EA021319433B
:10210000018470470A460021018C4FF6FF531940A5
:102110004FF6FF7303EA02231943018470470A460E
:102120000021018C4FF2FF7319404FF6FF7303EA51
:1021300002231943018470470A460021018C4DF6A1
:10214000FF7319404FF6FF7303EA0233194301840A
:10215000704730B5002301248C40A3B2048C9C430B
:102160000484048C02FA01F5ADB22C43048430BD22
:1021700030B5002304248C40A3B2048C9C43048417
:10218000048C02FA01F5ADB22C43048430BD70B565
:102190000346002000241846183001258D40ACB2BB
:1021A0001D8CA5431D8409B1082909D100EB6100EC
:1021B000056825F0700505600568154305600EE0AB
:1021C0000D1FC5F34E052844056825F4E04505605C
:1021D00005684FF6FF7606EA02263543056070BDB6
:1021E00021B1028842F00202028004E002884FF628
:1021F000FD731A400280704721B1028842F0040248
:10220000028004E002884FF6FB731A400280704798
:1022100021B1828842F08002828004E082884FF6F9
:102220007F731A408280704702884FF6F7731A4016
:10223000028002880A430280704782884FF68F73BB
:102240001A40828082880A438280704702894FF652
:10225000F8731A40028102890A4302817047028999
:102260004FF67F731A40028102890A430281704748
:1022700081847047818570478186704701877047E8
:1022800081877047A0F84010704702884FF6FF43DF
:102290001A40028002880A43028070470146888EF5
:1022A00070470146088F70470146888F7047014686
:1022B000B1F8400070470146888C70470146088D90
:1022C000704702460020138A0B400BB1012000E04A
:1022D00000207047CA430282704730B50246002092
:1022E00000230024158A05EA0103958905EA010403
:1022F00013B10CB1012000E0002030BDCA430282BE
:102300007047000010B50446BE48844208D1012140
:102310008014FEF72DFE0021A014FEF729FE16E022
:10232000B948844208D101210014FEF72EFE002195
:102330002014FEF72AFE0AE0B448844207D10121A6
:10234000C013FEF722FE0021E013FEF71EFE10BDB3
:1023500010B50022028802F441520B884C882343B6
:102360008C882343CC8823430C8923434C89234303
:102370008C892343CC8923431A430280838B4FF2F9
:10238000FF74234083830B8A038210BD2DE9F04F35
:1023900085B005460C464FF0000902274FF00008B3
:1023A0004FF0010B0026B246A88B4FF240010840C7
:1023B000A88302202884B5F81C90A068022801D1C7
:1023C00000BF38E0A08810B94FF0010B01E04FF0DA
:1023D000020B8D48854200D100E000BF6846FEF741
:1023E00040FDDDF800A0E088B0F5007F0AD14FEA9B
:1023F0001A2000EB80004000A168B0FBF1F0401D06
:1024000086B20BE04FEA4B10BAFBF0F000EB800015
:102410004000A168B0FBF1F0401D86B20A20B6FB77
:10242000F0F606F00108A6EB0800C0F34F074FF6E0
:10243000FF7000EA0828022F01DBFF2F02DD0227D0
:102440004FF00008E08840EA080038432884A0885C
:10245000A1890843618808432188084340F400604B
:1024600040EA0909A5F81C9005B0BDE8F08F0021ED
:10247000018041808180C180018141818181C18150
:102480000721018270470021018041808180C18045
:102490000221816000218181704721B1028842F0D0
:1024A0004002028004E002884FF6BF731A400280A7
:1024B000704721B1828B42F48062828304E0828B78
:1024C0004FF6FF331A408283704730B50024002353
:1024D0000C110125A540ABB21AB185881D4385803A
:1024E00002E085889D43858030BD1AB183880B4307
:1024F000838002E083888B438380704781817047AB
:102500000146888970474FF6FF62914204D00288E5
:1025100042F48072028004E002884FF6FF631A40A2
:102520000280704721B1828842F00402828004E078
:1025300082884FF6FB731A408280704702884FF200
:10254000FF731A40028002880A43028070470188A4
:1025500041F480510180704721B1028842F4005259
:10256000028004E002884DF6FF731A400280704733
:1025700002460020012901D0108B00E0908A7047AC
:102580000146088A7047B1F5804F04D1028842F4B1
:102590008042028004E002884BF6FF731A400280FA
:1025A00070470246002013890B400BB1012000E068
:1025B00000207047CA4302817047F0B502460020F0
:1025C00000240023002501F00F070126BE40B4B20D
:1025D0000B1101269E40B3B2968806EA03051689C0
:1025E000264016B10DB1012000E00020F0BD10B56D
:1025F000002201F00F040123A3409AB2D3430381C8
:1026000010BD00000030014000380040003C004098
:10261000014601EBC1024FF0E0235A6101221A6129
:1026200000229A6100BF4FF0E022106900F0010221
:102630001AB100F48032002AF5D000224FF0E023D6
:102640001A619A617047014642F228324A434FF0BC
:10265000E0235A6101221A6100229A6100BF4FF003
:10266000E022106900F001021AB100F48032002A61
:10267000F5D000224FF0E0231A619A61704730B51F
:102680000446002505E04FF47A70FFF7DCFF681C74
:10269000C5B2A542F7DB30BD70B504460D46E1B2C8
:1026A000F648FEF7EBFD00BF8021F448FEF754FE2C
:1026B0000028F9D0204670BD10B586B0044601212F
:1026C00044F20500FEF73AFC4FF40070ADF8140038
:1026D00003208DF8160018208DF8170005A9E8488A
:1026E000FEF770F94FF48060ADF8140004208DF807
:1026F000170005A9E248FEF765F94FF4C060FEF740
:1027000085FE25208DF8000000208DF801000120B5
:102710008DF802008DF803006846FEF77CFE0194F8
:102720000020ADF80800ADF80A00ADF80C00ADF8D7
:1027300010000C20ADF80E0001A9D248FEF7A5FC50
:102740000121D048FEF72DFD012240F22551CD4850
:10275000FEF733FD4021CB48FEF70BFE06B010BD5F
:1027600010B586B0044601210420FEF7E7FB0121E5
:102770004804FEF7F0FB0420ADF8140018208DF893
:10278000170005A9BE48FEF71DF90820ADF8140092
:1027900004208DF8170005A9B948FEF713F94FF486
:1027A000C060FEF733FE26208DF8000000208DF873
:1027B000010001208DF802008DF803006846FEF745
:1027C0002AFE01940020ADF80800ADF80A00ADF82B
:1027D0000C00ADF810000C20ADF80E0001A9AA48BD
:1027E000FEF753FC012240F22551A748FEF7E5FC15
:1027F0000121A548FEF7D5FC06B010BD10B586B086
:10280000044601210820FEF799FB01218804FEF708
:10281000A2FB4FF40060ADF8040004208DF807001F
:1028200001A99A48FEF7CEF84FF48060ADF8040095
:1028300003208DF8060018208DF8070001A99348A1
:10284000FEF7C0F802940020ADF80C00ADF80E00C1
:10285000ADF81000ADF814000C20ADF8120002A97C
:102860008648FEF712FC01218448FEF79AFC06B068
:1028700010BD10B5044621468248FEF7FFFC00BF9C
:1028800080218048FEF768FD0028F9D010BD70B5A2
:1028900005460E46002403E0285DFFF7EAFF641CAE
:1028A000B442F9D370BD10B5044621467648FEF710
:1028B000E5FC00BF80217448FEF74EFD0028F9D0EA
:1028C00010BD70B505460E46002403E0285DFFF7F5
:1028D000EAFF641CB442F9D370BD10B5044621462A
:1028E0006648FEF7CBFC00BF80216448FEF734FD4C
:1028F0000028F9D010BD70B505460E46002403E04F
:10290000285DFFF7EAFF641CB442F9D370BD60494B
:10291000097859B9FF2805D15E49087001215C4A40
:10292000117026E000215A4A117022E058490978B6
:102930001C2909DA5749564A1278885454490978AB
:10294000491C534A117014E0514909781C290DD1D2
:1029500050494F4A12788854AB2803D101214E4A7E
:10296000117006E000214A4A117002E00021484A35
:10297000117070474649097859B9592805D1454918
:1029800008700121424A117030E00021404A117064
:102990002CE03F49097801290BD14E2805D13D494A
:1029A000487002213A4A117020E00021384A117023
:1029B0001CE03749097813290BDA0D2809D035496D
:1029C000334A1278885432490978491C304A1170C8
:1029D0000CE00D2807D12F492D4A12788854012187
:1029E0002D4A117002E00021294A1170704708B584
:1029F00040F225512348FEF7C5FC90B12148FEF76F
:102A000041FCC0B2009025480078012804D19DF80F
:102A10000000FFF7AFFF03E09DF80000FFF777FF2E
:102A200002E000201A49087008BD10B540F2255197
:102A30001548FEF7A7FC00B31348FEF723FCC4B209
:102A40001748007858B9FF2C05D1164804700120AA
:102A50001349087037E000201149087033E010482E
:102A600000780A2820DA0F480D49097844540C48A8
:102A70000078401C0A49087025E025E00048004025
:102A8000000801400038014000440040000C0140B3
:102A900079000020930000207B00002078000020B7
:102AA0007A000020B0000020084800780A2807D1EA
:102AB000074806490978445401200649087002E095
:102AC00000200249087000BF10BD00007A000020FD
:102AD000B00000207C00002008B501211020FEF786
:102AE0002DFA4020ADF8000010208DF803000320DF
:102AF0008DF8020069462848FDF764FF402126480A
:102B0000FEF70FF808BD08B501218020FEF716FA80
:102B10004FF6FF70ADF8000010208DF80300032081
:102B20008DF8020069461D48FDF74CFF4FF6FF7017
:102B30001A491431086008BD10B5FFF7E4FFFFF72C
:102B4000CBFF10BD10B54FF400711448FDF7E7FF3F
:102B50000A20FFF75DFD4FF400711048FDF7E1FF1B
:102B60000A20FFF755FD10BD10B504460B48103084
:102B70000460FFF7E7FF10BD10B5044607481430A6
:102B80000460FFF7DFFF10BD054908607047044986
:102B9000091F08607047000000100140001C014040
:102BA0001418014000B587B001210820FEF7C6F9CE
:102BB00001218803FEF7CFF94FF46040ADF818000B
:102BC00018208DF81B0003208DF81A0006A99F48D5
:102BD000FDF7F8FE0020ADF804004FF48270ADF868
:102BE00006004FF40060ADF808000020ADF80A00C0
:102BF0000120ADF80C004002ADF80E003020ADF819
:102C000010000020ADF8120000219148FFF7A4FC4D
:102C100001218F48FFF741FC01A98D48FFF798FB80
:102C200007B000BD00B587B001210420FEF786F98A
:102C300001210803FEF782F9E020ADF81800182002
:102C40008DF81B0003208DF81A0006A98148FDF7B6
:102C5000B9FE0020ADF804004FF48270ADF8060014
:102C60004FF40060ADF808000020ADF80A00012024
:102C7000ADF80C004002ADF80E003020ADF81000A9
:102C80000020ADF8120000217348FFF765FC012118
:102C90007148FFF702FC01A96F48FFF759FB07B025
:102CA00000BD08B501210802FEF748F94FF6FF7094
:102CB000ADF8000003208DF8020028208DF80300F5
:102CC00069466648FDF77EFE08BD08B50121202053
:102CD000FEF734F94FF47C40ADF8000003208DF886
:102CE000020010208DF8030069465D48FDF76AFE7A
:102CF0004FF47C415A48FDF712FF08BD08B5012189
:102D00004020FEF71BF94FF6FF70ADF800000320DE
:102D10008DF8020010208DF8030069465148FDF738
:102D200051FE4FF6FF714F48FDF7F9FE08BD10B593
:102D3000FFF7E4FFFFF7C9FFFFF7B3FFFFF772FFED
:102D4000FFF730FF10BD10B50446434800884FF62A
:102D5000C771084040490880084600882043088021
:102D600001213D48FFF799FB10BD70B504460025D1
:102D700008E0681C85B242F21070854202DD4FF611
:102D8000FF7070BD02213448FFF70BFC0028F0D023
:102D900021463148FFF7B2FB00BF01212E48FFF763
:102DA00000FC0028F9D02C48FFF7AAFBE9E710B592
:102DB0000446294800884FF6C77108402649088014
:102DC000084600882043088001212348FFF765FB5F
:102DD00010BD70B50446002508E0681C85B242F2BB
:102DE0001070854202DD4FF6FF7070BD0221184859
:102DF000FFF7D7FB0028F0D021461548FFF77EFBF0
:102E000000BF01211248FFF7CCFB0028F9D0104881
:102E1000FFF776FBE9E770B504460D4621461148F9
:102E2000FDF77FFE0A20FFF7F3FB2846FFF79DFF23
:102E300006460A20FFF7ECFB21460A48FDF76FFE25
:102E40000A20FFF7E5FB304670BD0000000C014092
:102E500000380040000801400030014000200140DF
:102E600000140140001801401FB501210220FEF7A7
:102E700072F801211748FFF741FA4FF4FA60ADF8F4
:102E8000080048F69F40ADF804000020ADF80A00A5
:102E9000ADF8060001A90F48FEF7FAFB01210D4825
:102EA000FEF752FF002201210A48FEF768FF4FF4A7
:102EB000C060FEF7ABFA1D208DF8000000208DF8F1
:102EC000010001208DF802008DF803006846FEF72E
:102ED000A2FA1FBD0004004008B501210420FEF73E
:102EE0002DF80220ADF8000010208DF8030003201B
:102EF0008DF8020069460448FDF764FD022102488E
:102F0000FDF70FFE08BD00000008014080EA010245
:102F100010B502F00043400022D04A001FD0010E3D
:102F200001EB1261C0F35600C2F3560240F40000F8
:102F300042F40002A0FB022000047F39140400D0F8
:102F4000401C50EA124001D44000491EC2B20C0697
:102F500004EBD010401C4008802A02D003E000207F
:102F600010BD20F00100002900DA0020184310BD38
:102F700030B480EA010202F0004530F0004221F056
:102F8000004013D090B1C30DD40DC2F31601C0F3AD
:102F90001600E41A41F4000140F400027D3491422D
:102FA00001D3641C00E04900002C02DA30BC002090
:102FB00070474FF400000023914201D3891A034364
:102FC00040084FEA4101F7D151B1914202D14FF08F
:102FD000004105E002D24FF0010101E06FF0010174
:102FE00003EBC450284430BC00F094B92DE9FE4FE7
:102FF000804681EA0300C00F0C46009021F000419A
:1030000023F00045B8EB0200A94105D24046214615
:1030100090461C460B46024623F00040104347D022
:10302000270DC7F30A00C3F30A510290401A01901A
:1030300040286BDAC3F3130040F4801B00989246DB
:1030400020B10023D2EB030A63EB0B0B0198594626
:10305000C0F14002504600F02CF906460D4650469D
:103060005946019A00F044F910EB08006141002430
:1030700087EA115284EAE7731A4340D0009A62B398
:10308000019A012A4FEA075215DC001B61EB02018D
:103090004FF0004202EA0752CDE90042001C41F520
:1030A000801132462B4600F07BF903B0BDE8F08F6B
:1030B00040462146F9E7001B61EB0201001C41F587
:1030C000801300185B412018A2F5001747EB03019D
:1030D00040EAD570B6196D4111E06D084FEA360629
:1030E00045EAC0754FEA0752001B61EB0201001C64
:1030F00041F5801149084FEA30000019514132462C
:103100002B4603B0BDE8F04F00F03BB90098012218
:1031100040000023D0EB020263EBE07300982146ED
:103120004FEAE074B8EB000061EB0401E9E783F0DB
:1031300000435BE781F0004158E72DE9F04D81EA5B
:10314000030404F0004B21F0004514464FF0000A40
:1031500023F0004150EA050220D054EA01021DD0BC
:10316000C5F30A570246C5F31303C1F31300C1F3B5
:103170000A5640F4801543F48013A7EB0608101B91
:10318000D64608F2FD3873EB050002D308F10108BA
:1031900001E092185B41B8F1000F03DA002001460C
:1031A000BDE8F08D00204FF48011064684460EE005
:1031B000171B73EB050705D3121B63EB05030643CF
:1031C0004CEA010C49084FEA300092185B4150EA82
:1031D0000107EDD152EA030012D082EA040083EA2B
:1031E0000501084305D0101BAB4106D20122002384
:1031F00006E000224FF0004302E06FF0010253109E
:103200001AEB06004CEB085110EB0A0041EB0B01E6
:10321000BDE8F04D00F0B5B896230022114600F04D
:1032200082B8C1F30A5210B5C1F3130140F2FF3363
:1032300041F480119A4201DA002010BD40F233437C
:103240009A42A2F2334203DC524200F041F810BD30
:10325000904010BD00F0004230F000400AD0C10D97
:1032600001F56071C0F3160042EA0151C20840073F
:103270001143704700200146704701F0004330B40D
:1032800021F0004150EA010206D00A0DA2F5607259
:10329000C1F31301002A02DC30BC00207047440F48
:1032A00044EAC104C100E01830BC00EBC25000F099
:1032B00031B8202A04DB203A00FA02F100207047DE
:1032C0009140C2F1200320FA03F319439040704764
:1032D000202A04DB203A21FA02F00021704721FA6B
:1032E00002F3D040C2F120029140084319467047D2
:1032F000202A06DBCB17203A41FA02F043EAE073BA
:1033000006E041FA02F3D040C2F1200291400843A6
:10331000194670470029A8BF7047401C490008BFE4
:1033200020F00100704710B4B0FA80FC00FA0CF0F5
:1033300050EA010404BF10BC704749B1CCF120042D
:1033400021FA04F411FA0CF118BF012121430843BA
:10335000A3EB0C01CB1D4FEA00614FEA102042BFE6
:10336000002010BC704700EBC35010440029A4BFDC
:1033700010BC7047401C490008BF20F0010010BC81
:10338000704710B5141E73F1000408DA401C41F1B7
:10339000000192185B411A4301D120F0010010BDD9
:1033A0002DE9F04D92469B4611B1B1FA81F202E04F
:1033B000B0FA80F220329046FFF77BFF04460F46BA
:1033C00040EA0A0041EA0B0153465A46084313D02B
:1033D000114653EA010019D0C8F140025046FFF7E8
:1033E00077FF05460E46504659464246FFF761FFB5
:1033F000084305D0012004E020463946BDE8F08DA1
:103400000020054346EAE0762C4337430A986305DB
:10341000E40AA0EB08000022FD0A44EA47540A30FF
:1034200002D500200146E9E7010510196941DDE9EF
:10343000084500196941BDE8F04DA2E7064C074D6B
:1034400006E0E06840F0010394E807009847103474
:10345000AC42F6D3FCF770FEB0340008D03400085C
:10346000014A024900F013B89926000880000020A4
:1034700002E008C8121F08C1002AFAD1704770473D
:10348000002001E001C1121F002AFBD170472DE985
:10349000F04116460F460446002503E03946B04782
:1034A000641C6D1C20780028F8D12846BDE8F08106
:1034B000D0340008000000208400000070340008B0
:1034C00054350008840000203C04000080340008CB
:1034D000002A202A2B2C3E574252310D3E524E508C
:1034E0000D5555AA01AA10AA20AA254E4F524D41AA
:1034F0004C4552524F524641554C54434F44453A25
:1035000030303031303030324348414E3A31A032E1
:10351000A033A034A035A036434845434B494E471D
:1035200000A24A04000000000000000001020304A1
:103530000607080900000000010203040102030459
:103540000607080902040608010000000000000048
:043550000000000077
:0400000508000131BD
:00000001FF
