:020000040800F2
:1000000070430020CD01000803190008C516000840
:100010000119000827030008511B00080000000018
:1000200000000000000000000000000007190008A8
:100030003503000800000000051900080919000830
:10004000E7010008E7010008E7010008E7010008F0
:10005000E7010008E7010008E7010008E7010008E0
:10006000E7010008E7010008E7010008290300088C
:10007000E7010008E7010008E7010008E7010008C0
:10008000E7010008E7010008E7010008E7010008B0
:10009000E7010008E7010008E7010008E7010008A0
:1000A000E7010008E7010008E7010008E701000890
:1000B000E7010008E7010008E7010008E701000880
:1000C000E7010008E7010008E7010008E701000870
:1000D000E7010008391B0008451B0008E70100087C
:1000E000E7010008E7010008E7010008E701000850
:1000F000E7010008E7010008E7010008E701000840
:10010000E7010008E7010008E7010008E70100082F
:10011000E7010008E7010008E7010008E70100081F
:10012000E7010008E7010008E7010008E70100080F
:1001300000F002F800F03AF80AA090E8000C8244BF
:100140008344AAF10107DA4501D100F02FF8AFF29C
:10015000090EBAE80F0013F0010F18BFFB1A43F0A5
:1001600001031847441A0000641A0000103A24BF23
:1001700078C878C1FAD8520724BF30C830C144BF0C
:1001800004680C607047000000230024002500264E
:10019000103A28BF78C1FBD8520728BF30C148BFEA
:1001A0000B6070471FB51FBD10B510BD00F058F8AB
:1001B0001146FFF7F7FF01F0DCFC00F076F803B41E
:1001C000FFF7F2FF03BC00F07BF80000094880470E
:1001D00009480047FEE7FEE7FEE7FEE7FEE7FEE729
:1001E000FEE7FEE7FEE7FEE704480549054A064B41
:1001F00070470000891900083101000870010020D3
:100200007043002070030020700300204FF00002B4
:1002100000B5134694469646203922BFA0E80C50FC
:10022000A0E80C50B1F12001BFF4F7AF090728BFD7
:10023000A0E80C5048BF0CC05DF804EB890028BF53
:1002400040F8042B08BF704748BF20F8022B11F07C
:10025000804F18BF00F8012B7047704770477047F8
:10026000754600F029F8AE4605006946534620F071
:100270000700854618B020B5FFF7B6FFBDE820405F
:100280004FF000064FF000074FF000084FF0000B52
:1002900021F00701AC46ACE8C009ACE8C009ACE805
:1002A000C009ACE8C0098D4670470446AFF3008032
:1002B0002046FFF784FF0000004870470C01002033
:1002C00001491820ABBEFEE726000200704700007F
:1002D00070B5044600688168C943C90717D18168B1
:1002E00021F00101816000F0A1FC05460AE000BF99
:1002F00000F09CFC401B022804D920688068C043A1
:10030000C00706D020688068C043C007F0D0002036
:1003100070BDA06A40F01000A062E06A40F00100E9
:10032000E062012070BDFEE7014800F01BBA00004A
:1003300040000020704772B6FEE70000F8B50024C8
:10034000009490F824202546012A12D0012280F83A
:1003500024204A681F23072A0DD20668776B521E95
:1003600002EB820293409F430B6893401F437763E5
:1003700019E00220F8BD06680D2A0AD2376BD21F99
:1003800002EB820293409F430B6893401F43376305
:1003900009E0F76A0D3A02EB820293409F430B6833
:1003A00093401F43F7620A68072306680A2A0AD3A4
:1003B000F7680A3A02EB420293409F438B689340EE
:1003C0001F43F76008E0376902EB420293409F4306
:1003D0008B6893401F4337610A68102A01D0112AA5
:1003E00020D1124B02689A4217D193681B0219D48C
:1003F000936843F4000393600968102912D10C49F3
:100400000C4A0968B1FBF2F101EB8101490000E0FF
:10041000491E00910029FBD104E0816A41F02001CE
:100420008162012480F824502046F8BD0024014058
:100430000C00002040420F002DE9F04104004FF075
:10044000000514D0A06A002628B9E66284F824606A
:10045000204600F083F82046FFF73AFFA16A01F03A
:100460001001014304D0A06A40F01000A0626BE0CC
:10047000A16A21F4885141F00201A1623349236845
:100480008B42E16904D1B1F5402F01D14FF4002135
:10049000277B4FF4807C41EA470261680A43A168E8
:1004A000614509D0012907D05FF0000194F814E0FC
:1004B000BEF1010F02D00AE06146F7E7C7B1A76AB3
:1004C00047F02007A762E76A47F00107E7625F6825
:1004D00027F469470F435F60236899681C4F3940D0
:1004E00011439960A16861450BD0012909D00CE046
:1004F000DFF860E0A7690EEB47370F4347F4006170
:10050000E5E7218A0D05A5F580152168CB6A23F45E
:1005100070032B43CB62216889680F4B19409142CD
:1005200008D1E662A16A21F0020141F00101A16255
:10053000BDE8F081A06A20F0020040F01000A06247
:10054000E06A40F00100E0620120F1E7003C014078
:10055000FDF7E1FF00E0FFFFFE0E1FFF70B586B064
:1005600000260546009601960296039600681A49F1
:1005700088422ED11949886940F4007088618869E1
:1005800000F400700490886940F008008861886970
:10059000694600F008000490032000900190104884
:1005A00000F042FA104C0F48C4E900068020C4E96C
:1005B000026040002061800060612020A061000294
:1005C000E061204600F0F2F908B1FFF7B4FE2C62BA
:1005D000656206B070BD00000024014000100240BA
:1005E000000C0140080002404000002010B590F8C7
:1005F00021100022022905D00421816380F82020E7
:10060000012010BD01680B6823F00E030B60016828
:100610000B6823F001030B6090F84030C46B01219C
:1006200001FA03F3636080F8211080F8202010465F
:1006300010BD00002DE9F05F90F821100024022980
:1006400003D004218163012485E001680A6822F057
:100650000E020A6001680A6822F001020A603F4E39
:100660003E4FB215DFF8F4C0DFF8F090DFF8ECA0F1
:10067000DFF8E8B0DFF8E4E00168783F1301150225
:10068000ACF1640CA9F15009AAF13C0AABF1280BBA
:10069000AEF1140E4FF48018B14227D9B9420ED0F2
:1006A000614512D049451DD0514518D0594518D043
:1006B000714501D1424615E0294EB14201D10122D6
:1006C00010E0274E1436B14201D110220AE0244E28
:1006D0002836B14206D0224A3C32914201D11A4614
:1006E00000E02A461E49091F0A602BE0B94213D0D8
:1006F000614517D0494522D051451DD059451DD0DF
:10070000714501D142461AE0B14202D14FF08072E8
:1007100015E0134EB14201D1012210E0104E143603
:10072000B14201D110220AE00D4E2836B14206D066
:100730000B4A3C32914201D11A4600E02A46074951
:1007400080394A60012180F82110002180F82010B2
:10075000416B01B188472046BDE8F09F8000024010
:10076000080402402DE9F05FC16B0A6801680B685C
:10077000046C4FF0040808FA04F8844D844E854F49
:10078000DFF814C2DFF81492DFF814A2DFF814B215
:10079000DFF814E218EA020F65D05FEA437862D509
:1007A0000A68920603D40A6822F004020A60DFF89D
:1007B000F0814FF48062016808F1140813011402FB
:1007C000414524D9A9420DD0B1420FD0B9421AD027
:1007D000614515D0494515D0514501D1120312E0AC
:1007E000594501D104220EE0714501D140220AE0B1
:1007F0006D4D1435A94206D06B4A2832914201D181
:100800001A4600E022466749091F0A6029E0A9420A
:1008100013D0B14215D0B94220D061451BD0494513
:100820001BD0514502D14FF4800217E0414502D15F
:100830004FF0806212E0594501D104220EE071456B
:1008400001D140220AE0584D1435A94206D0564A3B
:100850002832914201D11A4600E022464B4908391C
:100860004A60C16A71E04FF0020808FA04F818EA19
:10087000020F70D05FEA83786DD50A68920606D4BD
:100880000A6822F00A020A60012180F82110DFF8CC
:1008900010814FF40072016808F11408130114026A
:1008A000414524D9A9420DD0B1420FD0B9421AD046
:1008B000614515D0494515D0514501D1120312E0CB
:1008C000594501D102220EE0714501D120220AE0F2
:1008D000354D1435A94206D0334A2832914201D110
:1008E0001A4600E022462F49091F0A6029E0A94262
:1008F00013D0B14215D0B94220D061451BD0494533
:100900001BD0514502D14FF4001217E0414502D1EE
:100910004FF0007212E0594501D102220EE07145FC
:1009200001D120220AE0204D1435A94206D01E4AEA
:100930002832914201D11A4600E022461349083973
:100940004A60002180F82010816A00291CD0BDE88F
:10095000F05F0847FFE70825A540154214D01A07A5
:1009600012D50A6822F00E020A6090F84020C36B8C
:10097000012101FA02F25A60816380F821100021FE
:1009800080F82010016BE0E7BDE8F09F080002400E
:100990001C00024030000240440002405800024067
:1009A0006C000240080402401C04024030B560B1F3
:1009B0001A4B026814219A4209D2194B1344B3FB13
:1009C000F1F18900016417490AE0012030BD134BA1
:1009D0005B421344B3FBF1F1890001640F4908390C
:1009E000C163022180F82110136843F6F0718B4334
:1009F000F0E901142143D0E902452C432143046965
:100A00002143446921438469214319431160002132
:100A10004163012242770177084630BD0804024055
:100A2000F8FFFDBF000002402DE9F84FDFF8C89144
:100A3000002409F1040A0AF1040B23460F270BF1E5
:100A4000040ED1E00125A54006EA0502AA4276D1AE
:100A5000DFF8A8C14E68A6EB0C0866452BD00DDC6C
:100A6000032E34D005DC36B3012E19D0022E2FD13F
:100A70001BE0112E16D0122E2AD119E0B8F5881FCE
:100A800019D006DCB8F5803F15D0B8F5801F1FD10E
:100A900011E0B8F5001F0ED0B8F5041F18D10AE018
:100AA000CB6815E0CB681B1D12E0CB6808330FE064
:100AB000CB680C330CE08B682BB1012B4FF0080393
:100AC00003D0456104E0042302E0056100E0002357
:100AD000FF2A01D8064601E000F104064FEA84052A
:100AE00001D9A5F12005D6F8008007FA05FC28EA0F
:100AF0000C0803FA05F548EA0508C6F800804D68B9
:100B0000ED0070D53E4DAE6946F00106AE61AD69AF
:100B100024F0030605F0010500953A4D06EB050C9F
:100B2000DCF80850A607360F07FA06F825EA08058C
:100B3000DFF8D480404503D14FF0000825E052E0B3
:100B4000DFF8C880404502D14FF001081DE0DFF812
:100B5000C080404502D14FF0020816E0DFF8B480B3
:100B6000404502D14FF003080FE0DFF8AC8040456C
:100B700002D14FF0040808E0DFF8A080404502D120
:100B80004FF0050801E04FF0060808FA06F848EAB9
:100B90000508CCF808804D68D9F80060ED034D4693
:100BA00001D5164300E096432E604D68DAF80060E8
:100BB000AD03554601D5164300E096432E604D68BF
:100BC000DBF80060ED025D4601D5164300E0964378
:100BD0002E604D68DEF80060AD02754601D5164303
:100BE00000E096432E60641C0A681646E2407FF4DB
:100BF00029AFBDE8F88F000000040140000011108B
:100C0000001002400000014000080140000C0140BB
:100C1000001001400014014000180140001C014078
:100C20000AB1016170470904FBE7000001488068D0
:100C300070470000000000200248816802781144DB
:100C40008160704700000020074810B5016841F03E
:100C500010010160032000F075F80F2000F006F885
:100C600000F024F8002010BD0020024070B50D4DAA
:100C700004464FF47A712878B1FBF0F00A4909680C
:100C8000B1FBF0F000F062FB48B9102C07D2002253
:100C90002146501E00F036F800206C6070BD012027
:100CA00070BD0000000000200C0000200C4808B5BA
:100CB000816941F001018161816901F001010091C7
:100CC000C16941F08051C161C06900F0805000905D
:100CD0000448416821F0E06141F08061416008BD55
:100CE0000010024000000140002809DB00F01F0254
:100CF000012191404009800000F1E020C0F800117E
:100D000070470000F0B40E4B1B680C46C3F302237F
:100D1000C3F10705042D00D90425191D072901D2A7
:100D2000002300E0DB1E012606FA05F1491E2140E2
:100D300099409E40761E16403143F0BC00F009BF3A
:100D40000CED00E0064900F0070208684FF6FF03CB
:100D5000184040EA0220034A104308607047000030
:100D60000CED00E00000FA052DE9F8430546007897
:100D7000354CC00754D0E0690026C00008D4E069B3
:100D800040F08050E061E069012600F08050009062
:100D90002E480168C90512D40168804641F480716B
:100DA0000160FFF743FF074605E000BFFFF73EFF86
:100DB000C01B642823D8D8F80000C005F6D5206AE7
:100DC00010F4407021D0A98801F4407181421CD0F8
:100DD000206A1F49012220F440700A6000220A6044
:100DE0002062C00711D0FFF721FF074641F2883883
:100DF00008E000BFFFF71AFFC11B414502D90320DD
:100E0000BDE8F883206A8007F4D5206A696820F479
:100E10004070084320621EB1E06920F08050E0611C
:100E20002878800705D56068A96820F44040084309
:100E300060602878C00605D56068696920F4800084
:100E4000084360600020DBE70010024000700040B3
:100E5000400442422DE9F0470F46050061D0434E61
:100E6000306800F00700B84209D2306820F007006F
:100E700038433060306800F00700B84251D128682C
:100E80003B4C810712D5400703D5606840F4E06011
:100E900060602878000703D5606840F460506060A7
:100EA0006068A96820F0F000084360602878C007F7
:100EB00028D06868012810D02168022810D089073E
:100EC00000292EDA616821F0030101436160FFF718
:100ED000ADFE804641F288390DE021688903EFE7D5
:100EE0008901EDE7FFF7A2FEA0EB0801494502D911
:100EF0000320BDE8F0876068696800F00C00B0EB83
:100F0000810FEFD1306800F00700B8420BD930688C
:100F100020F0070038433060306800F00700B84226
:100F200001D00120E5E72878400705D56068E96829
:100F300020F4E060084360602878000706D5606808
:100F4000296920F4605040EAC100606000F038F880
:100F50006168084AC1F30311515CC8400649086042
:100F600006480068FFF782FE0020C2E7002002402A
:100F700000100240901B00080C000020040000201C
:100F80000448054900684968044AC1F30221515CDC
:100F9000C84070470C00002000100240A01B000851
:100FA0000448054900684968044AC1F3C221515CFC
:100FB000C84070470C00002000100240A01B000831
:100FC00012A185B00FC98DE80F0014A0144A006863
:100FD00004905168134801F00C03042B10D0082B27
:100FE0000ED1C1F38343C9031DF803000AD551682C
:100FF00004AAC1F34041515C0A4A5043B0FBF1F0EE
:1010000005B0704708494843FAE7000002030405A9
:10101000060708090A0B0C0D0E0F10100102000044
:101020000010024000127A0000093D002DE9F84F3F
:10103000040070D02078C04DC00749D06868C0F364
:101040008100012807D06868C0F38100022809D117
:101050006868C00306D52868800339D56068002811
:10106000E7D035E06068B0F5803F0BD010B1B0F547
:10107000A02F11D0286820F480302860286820F440
:10108000802002E0286840F480302860606890B1D9
:10109000FFF7CCFD06460AE0286840F4802028606F
:1010A000F0E700BFFFF7C2FD801B642873D82868F3
:1010B0008003F7D50CE0FFF7B9FD064605E000BF59
:1010C000FFF7B4FD801B6428F0D828688003F7D4AC
:1010D00020789A4E80074FF001094FF0000839D56B
:1010E000686810F00C0F07D06868C0F38100022810
:1010F00009D16868C00306D42868800714D5206920
:10110000012808D110E02069B0B1C6F80090FFF7BF
:101110008DFD074605E00AE1FFF788FDC01B0228A8
:10112000C4D828688007F7D52868616920F0F800DE
:1011300040EAC10028600DE0C6F80080FFF776FDA8
:10114000074604E0FFF772FDC01B022823D8286879
:101150008007F7D4207800072CD57948A169D9B148
:10116000C0F80090FFF762FD074604E0FFF75EFD60
:10117000C01B02280FD8686A8007F7D571484FF462
:10118000FA510068B0FBF1F0009000BF0098411EDA
:101190000091FAD20EE080E0C0F80080FFF746FD33
:1011A000074604E0FFF742FDC01B022875D8686AB5
:1011B0008007F7D42078400760D5E8690027C00091
:1011C00008D4E86940F08050E861E869012700F040
:1011D000805000905C480168C90513D401688346BB
:1011E00041F480710160FFF721FD824606E000BFF7
:1011F000FFF71CFDA0EB0A0064284ED8DBF80000C6
:10120000C005F5D5E06801280AD008B1052813D03B
:10121000286A20F001002862286A20F0040002E019
:10122000286A40F001002862E06841F2883B98B1EA
:10123000FFF7FCFC82460BE0286A40F004002862BD
:10124000EEE700BFFFF7F2FCA0EB0A0159455AD8C0
:10125000286A8007F6D50CE0FFF7E8FC824605E037
:10126000FFF7E4FCA0EB0A0159454CD8286A800737
:10127000F6D41FB1E86920F08050E861E06988B3D6
:101280006968C1F38101022944D00228C6F8608050
:1012900004D0FFF7CBFC044638E034E0FFF7C6FC8F
:1012A000074604E0FFF7C2FCC01B02282BD82868C1
:1012B0008001F7D4206AB0F5803F05D16868A16845
:1012C00020F4003008436860D4E9080108436968E5
:1012D00021F4741108436860C6F86090FFF7A6FC1B
:1012E000044606E025E000BFFFF7A0FC001B022833
:1012F00009D828688001F7D51BE000BFFFF796FCEE
:10130000001B022802D90320BDE8F88F286880015D
:10131000F4D40EE00128F7D06868226A00F4803126
:10132000914204D1616A00F47010884201D001201A
:10133000EAE70020E8E70000001002400000424217
:10134000800442420C0000200070004010B5401E96
:10135000B0F1807F01D3012010BD4FF0E024606127
:101360000F21601700F0F5FB0020A061072020612D
:10137000002010BD70477047F8B502680446106839
:10138000D168536910F00F0F4FF0000554D003F0EF
:10139000010601F4907737435FD0C20705D0CA0534
:1013A00003D5226C42F001022264420705D5DA0718
:1013B00003D0226C42F002022264820705D5DA07CC
:1013C00003D0226C42F004022264020707D501F028
:1013D0002002324303D0226C42F008022264226CC5
:1013E000002A35D0800604D5880602D5204600F0B4
:1013F000ECFA20684069216CC0F3801001F008010C
:101400000143204625D000F0C8FA2068416949060A
:101410001BD5416921F040014161A06BA8B1584939
:101420004163A06BFFF706F9002811D0A06B416B58
:1014300001B0BDE8F040084783060ED58B060CD5F9
:101440002046BDE8F84000F0C0BA2046FFF793FF01
:10145000F8BDFFF790FF2564F8BD266B2023012E11
:1014600052D1C60650D5CE064ED5106850680090B1
:10147000506940062AD5A16B086840680004000C3A
:10148000EAD0A68D8642E7D9E0858869202818D061
:10149000D06820F48070D0602068416921F001019B
:1014A00041612068416921F04001416184F83E308A
:1014B00025632068C16821F01001C160A06BFFF7AF
:1014C00095F8A08DE18D401A81B219E0A08DE18DD3
:1014D000401A81B2E08D0028BED00029BCD0D0686F
:1014E00020F49070D0602068426922F001024261CD
:1014F00084F83E3025632068C26822F01002C26082
:101500002046FFF737FFF8BD05062BD50D0629D578
:1015100094F83D002128F6D1A068B0F5805F01D194
:101520002069B0B1206A411C2162216800784860BE
:10153000E08C401E0004000CE084E4D12068C16807
:1015400021F08001C1602068C16841F04001C160A4
:10155000F8BD206A0088C0F308005060206A801C33
:101560002062E5E74006F3D54806F1D5D16820466C
:1015700021F04001D16084F83D3000F0A2F8F8BDC0
:101580008B19000870B5040004D094F83D000025C4
:1015900010B106E0012070BD84F83C50204600F0F8
:1015A00023F8242084F83D002068C16821F400510C
:1015B000C160204600F064FA2068016921F490417E
:1015C00001612068416921F02A0141612068C168F8
:1015D00041F40051C1602564202084F83D0084F866
:1015E0003E00002070BD000070B586B0002400945D
:1015F0000194029403942E4E03682E490220032284
:101600002D4DB34226D18B6943F480438B618B69A6
:1016100003F4804304938B6943F004038B6189696D
:10162000039201F0040104910102CDE90010694622
:101630002846FFF7F9F92815CDE900046946284640
:101640000294FFF7F1F9002211462520FFF75AFB1B
:10165000252028E0194EB34227D1CB6943F400334B
:10166000CB61CB6903F4003304938B6943F004032B
:101670008B618969039201F0040104910421CDE991
:10168000001069462846FFF7CFF90820CDE900048D
:10169000694628460294FFF7C7F900221146262022
:1016A000FFF730FB2620FFF71FFB06B070BD0000E0
:1016B0000038014000100240000801400044004092
:1016C00070477047FEE700003EB5002411480094C3
:1016D000019402940E49846001600125057304752C
:1016E00005614FF460214460C161FEF7A5FE08B1B9
:1016F000FEF721FE0820CDE9000569460294054861
:10170000FEF71CFE002801D0FEF715FE3EBD0000CE
:101710000024014010000020094808B5416941F04B
:10172000010141614069002200F001000090114672
:101730000B20FFF7E7FABDE808400B20FFF7D4BA0B
:10174000001002402DE9F04385B00025484800957F
:10175000019502950395816941F04001816181699C
:1017600001F040010491816941F0100181618169BA
:1017700001F010010491816941F08001816181696A
:1017800001F080010491816941F004018161816966
:1017900001F004010491816941F0080181618169CE
:1017A00001F008010491816941F4807181618169CE
:1017B00001F480710491816941F0200181618069A7
:1017C000DFF8B09000F020004FF4FC770490002286
:1017D00039464846FFF724FA48F2FF700324CDE962
:1017E0000004DFF8948069464046FFF71DF94FF684
:1017F000FF76CDE9006469462048FFF715F9CDE989
:10180000006469461E48FFF70FF94FF6F310CDE963
:10181000000469461B48FFF707F9F01ECDE90004F4
:1018200069461948FFF700F94FF60760CDE9000453
:1018300069464846FFF7F8F84FF4F040CDE9000557
:10184000694640460295FFF7EFF8CDE90064694626
:101850000E48FFF7E9F801200097CDE901050220C5
:10186000039069464846FFF7DFF805B0BDE8F0830E
:10187000001002400020014000180140001001400B
:10188000001C014000080140000C01400014014010
:101890000C4810B50A4901604FF4E1314160002164
:1018A00081600C22C160C0E904128161C161FFF74F
:1018B00069FE002803D0BDE81040FEF73CBD10BD16
:1018C00000380140840000200C4810B50A4901602E
:1018D0004FF4E1314160002181600C22C160C0E918
:1018E00004128161C161FFF74DFE002803D0BDE8FD
:1018F0001040FEF720BD10BD00440040C80000208D
:10190000FEE7FEE770477047FFF796B930B595B030
:1019100028216846FEF77AFC14210AA8FEF776FC17
:1019200018210FA8FEF772FC01204FF4A02100251A
:101930008DE82300049002240004CDE907404FF411
:10194000E01009906846FFF771FB08B172B6FEE738
:101950000AA90F2081E831004FF48060CDE90D0520
:1019600002210AA8FFF776FA08B172B6FEE74FF433
:10197000004011900F940FA8FFF7F6F9002801D04E
:1019800072B6FEE715B030BD704710B5406A002151
:10199000C185C184FFF7EFFC10BD0168CA6822F45D
:1019A0009072CA6001684A6922F001024A61016BC3
:1019B000012904D10168CA6822F01002CA602021FE
:1019C00080F83E1000210163704708B590F83E1082
:1019D000222901D0022008BD82684FF480539A4228
:1019E00001D1016921B1816A9A421BD04AB10AE052
:1019F0000268816A5268C2F308020A80816A891CFF
:101A000008E0026972B10268526802F07F020A704F
:101A1000816A491C8162C18D491E0904090CC18576
:101A200003D019E002685268F1E70168CA6822F041
:101A30002002CA600168CA6822F48072CA60016824
:101A40004A6922F001024A61202180F83E10016BB0
:101A5000012903D0FFF734FE002008BD00210163F7
:101A60000168CA6822F01002CA6001680A68D206DA
:101A700002D50A6849680091818DFFF77BFCEBE78E
:101A800070B5044600680169E26821F440511143D1
:101A900001612169A0680843616908432168CA6837
:101AA00041F20C639A430243CA6020684169A2690B
:101AB00021F44071114341611E492068884202D1DE
:101AC000FFF76EFA01E0FFF75BFA00EBC00101EBF4
:101AD0000012606864218000B2FBF0F3B3FBF1F305
:101AE0006FF018067343B2FBF0F5B2FBF0F605EBAE
:101AF0008305322303EB0515B5FBF1F5B6FBF1F6D3
:101B000005F0F00505EB0615B2FBF0F6B2FBF0F0C0
:101B1000B0FBF1F06FF01802504306EB800003EBCE
:101B20000010B0FBF1F0216800F00F00284488603D
:101B300070BD0000003801400148FFF71DBC0000E7
:101B4000840000200148FFF717BC0000C8000020F7
:101B5000FEE70907090E002804DB00F1E02080F809
:101B60000014704700F00F0000F1E02080F8141D11
:101B70007047FFF769F8FFF7C9FEFFF7E3FDFFF7CE
:101B8000CBFDFFF7A1FDFFF783FEFFF79DFEFEE70C
:101B9000000000000000000001020304060708091D
:101BA0000000000001020304C81B00080000002020
:101BB000100000006C010008D81B00081000002075
:101BC00060430000880100080100000010000000D0
:081BD000000000000024F400F5
:0400000508000131BD
:00000001FF
